{
  "_format": "hh-sol-artifact-1",
  "contractName": "WordsURI",
  "sourceName": "contracts/WordsURI.sol",
  "abi": [
    {
      "inputs": [
        {
          "internalType": "address",
          "name": "_wordsAddress",
          "type": "address"
        }
      ],
      "stateMutability": "nonpayable",
      "type": "constructor"
    },
    {
      "inputs": [
        {
          "internalType": "uint256",
          "name": "tokenId",
          "type": "uint256"
        }
      ],
      "name": "tokenURI",
      "outputs": [
        {
          "internalType": "string",
          "name": "",
          "type": "string"
        }
      ],
      "stateMutability": "view",
      "type": "function"
    },
    {
      "inputs": [],
      "name": "wordsAddress",
      "outputs": [
        {
          "internalType": "address",
          "name": "",
          "type": "address"
        }
      ],
      "stateMutability": "view",
      "type": "function"
    }
  ],
  "bytecode": "0x60806040523480156200001157600080fd5b5060405162001fe238038062001fe2833981810160405281019062000037919062000095565b806000806101000a81548173ffffffffffffffffffffffffffffffffffffffff021916908373ffffffffffffffffffffffffffffffffffffffff160217905550506200010f565b6000815190506200008f81620000f5565b92915050565b600060208284031215620000a857600080fd5b6000620000b8848285016200007e565b91505092915050565b6000620000ce82620000d5565b9050919050565b600073ffffffffffffffffffffffffffffffffffffffff82169050919050565b6200010081620000c1565b81146200010c57600080fd5b50565b611ec3806200011f6000396000f3fe608060405234801561001057600080fd5b50600436106100365760003560e01c8063c87b56dd1461003b578063f5e081971461006b575b600080fd5b61005560048036038101906100509190610c5c565b610089565b60405161006291906114a6565b60405180910390f35b6100736104c8565b604051610080919061148b565b60405180910390f35b606060008060008060008060008060009054906101000a900473ffffffffffffffffffffffffffffffffffffffff1673ffffffffffffffffffffffffffffffffffffffff1663ff69ea908a6040518263ffffffff1660e01b81526004016100f091906114c8565b60006040518083038186803b15801561010857600080fd5b505afa15801561011c573d6000803e3d6000fd5b505050506040513d6000823e3d601f19601f820116820180604052508101906101459190610c85565b965096509650965096509650965061015b610ba2565b600080604051806080016040528060418152602001611e4d60419139836000606481106101b1577f4e487b7100000000000000000000000000000000000000000000000000000000600052603260045260246000fd5b6020020181905250876040516020016101ca9190611443565b60405160208183030381529060405283836101e49061172b565b9350836064811061021e577f4e487b7100000000000000000000000000000000000000000000000000000000600052603260045260246000fd5b60200201819052506040518060600160405280602e8152602001611e1f602e9139838361024a9061172b565b93508360648110610284577f4e487b7100000000000000000000000000000000000000000000000000000000600052603260045260246000fd5b60200201819052506000670de0b6b3a76400008b6102a291906115cc565b90506102ae88826104ec565b84846102b99061172b565b945084606481106102f3577f4e487b7100000000000000000000000000000000000000000000000000000000600052603260045260246000fd5b6020020181905250603281111561030957603290505b600191505b80821161038a5761032a8a834361032591906115fd565b61058f565b84846103359061172b565b9450846064811061036f577f4e487b7100000000000000000000000000000000000000000000000000000000600052603260045260246000fd5b602002018190525081806103829061172b565b92505061030e565b868660405160200161039d929190611389565b60405160208183030381529060405284846103b79061172b565b945084606481106103f1577f4e487b7100000000000000000000000000000000000000000000000000000000600052603260045260246000fd5b60200201819052506060600092505b83831161047b5780858460648110610441577f4e487b7100000000000000000000000000000000000000000000000000000000600052603260045260246000fd5b60200201516040516020016104579291906111cb565b604051602081830303815290604052905082806104739061172b565b935050610400565b60006104868f6107ad565b876104908461095a565b6040516020016104a29392919061132c565b6040516020818303038152906040529050809d5050505050505050505050505050919050565b60008054906101000a900473ffffffffffffffffffffffffffffffffffffffff1681565b60606000808314156105015760329050610511565b82606361050e9190611576565b90505b61012c8111156105215761012c90505b60006002826101906105339190611657565b61053d91906115cc565b90506000610140905061054f826107ad565b610558826107ad565b610561856107ad565b8860405160200161057594939291906113ce565b604051602081830303815290604052935050505092915050565b606060006105ac600a6024856105a49061172b565b955085610b18565b905060006105d56000836101906105c39190611657565b866105cd9061172b565b965086610b18565b905060006105f260146064876105ea9061172b565b975087610b18565b9050600061061a84836101c26106089190611657565b886106129061172b565b985088610b18565b90506000610637601e605a8961062f9061172b565b995089610b18565b90506000610650600a8361064b91906115cc565b6107ad565b610665600a84610660919061177e565b6107ad565b6040516020016106769291906112ab565b604051602081830303815290604052905060006106a2601e60b48b61069a9061172b565b9b508b610b18565b905060006106bb600a836106b691906115cc565b6107ad565b6106d0600a846106cb919061177e565b6107ad565b6040516020016106e19291906112ab565b604051602081830303815290604052905060006106fd886107ad565b6107068a6107ad565b8d604051602001610719939291906112da565b6040516020818303038152906040529050808260405160200161073d9291906111ef565b604051602081830303815290604052905080610758876107ad565b61076c89896107679190611576565b6107ad565b610775896107ad565b8760405160200161078a959493929190611229565b604051602081830303815290604052905080995050505050505050505092915050565b606060008214156107f5576040518060400160405280600181526020017f30000000000000000000000000000000000000000000000000000000000000008152509050610955565b600082905060005b600082146108275780806108109061172b565b915050600a8261082091906115cc565b91506107fd565b60008167ffffffffffffffff811115610869577f4e487b7100000000000000000000000000000000000000000000000000000000600052604160045260246000fd5b6040519080825280601f01601f19166020018201604052801561089b5781602001600182028036833780820191505090505b5090505b6000851461094e576001826108b49190611657565b9150600a856108c3919061177e565b60306108cf9190611576565b60f81b81838151811061090b577f4e487b7100000000000000000000000000000000000000000000000000000000600052603260045260246000fd5b60200101907effffffffffffffffffffffffffffffffffffffffffffffffffffffffffffff1916908160001a905350600a8561094791906115cc565b945061089f565b8093505050505b919050565b606060008251905060008114156109835760405180602001604052806000815250915050610b13565b600060036002836109949190611576565b61099e91906115cc565b60046109aa91906115fd565b905060006020826109bb9190611576565b67ffffffffffffffff8111156109fa577f4e487b7100000000000000000000000000000000000000000000000000000000600052604160045260246000fd5b6040519080825280601f01601f191660200182016040528015610a2c5781602001600182028036833780820191505090505b5090506000604051806060016040528060408152602001611ddf604091399050600181016020830160005b86811015610ad05760038101905062ffffff818a015116603f8160121c168401518060081b905060ff603f83600c1c1686015116810190508060081b905060ff603f8360061c1686015116810190508060081b905060ff603f831686015116810190508060e01b90508084526004840193505050610a57565b506003860660018114610aea5760028114610afa57610b05565b613d3d60f01b6002830352610b05565b603d60f81b60018303525b508484525050819450505050505b919050565b600080610b2483610b6f565b905061271081610b34919061177e565b9050846127108686610b469190611657565b83610b5191906115fd565b610b5b91906115cc565b610b659190611576565b9150509392505050565b600081604051602001610b829190611470565b6040516020818303038152906040528051906020012060001c9050919050565b60405180610c8001604052806064905b6060815260200190600190039081610bb25790505090565b6000610bdd610bd884611508565b6114e3565b905082815260208101848484011115610bf557600080fd5b610c008482856116c7565b509392505050565b600082601f830112610c1957600080fd5b8151610c29848260208601610bca565b91505092915050565b600081359050610c4181611dc7565b92915050565b600081519050610c5681611dc7565b92915050565b600060208284031215610c6e57600080fd5b6000610c7c84828501610c32565b91505092915050565b600080600080600080600060e0888a031215610ca057600080fd5b6000610cae8a828b01610c47565b975050602088015167ffffffffffffffff811115610ccb57600080fd5b610cd78a828b01610c08565b965050604088015167ffffffffffffffff811115610cf457600080fd5b610d008a828b01610c08565b955050606088015167ffffffffffffffff811115610d1d57600080fd5b610d298a828b01610c08565b945050608088015167ffffffffffffffff811115610d4657600080fd5b610d528a828b01610c08565b93505060a088015167ffffffffffffffff811115610d6f57600080fd5b610d7b8a828b01610c08565b92505060c088015167ffffffffffffffff811115610d9857600080fd5b610da48a828b01610c08565b91505092959891949750929550565b610dbc8161168b565b82525050565b6000610dcd82611539565b610dd7818561154f565b9350610de78185602086016116c7565b80840191505092915050565b6000610dfe82611544565b610e08818561155a565b9350610e188185602086016116c7565b610e218161183c565b840191505092915050565b6000610e3782611544565b610e41818561156b565b9350610e518185602086016116c7565b80840191505092915050565b6000610e6a60258361156b565b9150610e758261184d565b602582019050919050565b6000610e8d600e8361156b565b9150610e988261189c565b600e82019050919050565b6000610eb060178361156b565b9150610ebb826118c5565b601782019050919050565b6000610ed3601d8361156b565b9150610ede826118ee565b601d82019050919050565b6000610ef660048361156b565b9150610f0182611917565b600482019050919050565b6000610f1960908361156b565b9150610f2482611940565b609082019050919050565b6000610f3c60118361156b565b9150610f4782611a01565b601182019050919050565b6000610f5f60108361156b565b9150610f6a82611a2a565b601082019050919050565b6000610f8260188361156b565b9150610f8d82611a53565b601882019050919050565b6000610fa560378361156b565b9150610fb082611a7c565b603782019050919050565b6000610fc860238361156b565b9150610fd382611acb565b602382019050919050565b6000610feb600d8361156b565b9150610ff682611b1a565b600d82019050919050565b600061100e600d8361156b565b915061101982611b43565b600d82019050919050565b600061103160018361156b565b915061103c82611b6c565b600182019050919050565b600061105460018361156b565b915061105f82611b95565b600182019050919050565b600061107760018361156b565b915061108282611bbe565b600182019050919050565b600061109a60028361156b565b91506110a582611be7565b600282019050919050565b60006110bd60078361156b565b91506110c882611c10565b600782019050919050565b60006110e060248361156b565b91506110eb82611c39565b602482019050919050565b6000611103603d8361156b565b915061110e82611c88565b603d82019050919050565b6000611126601b8361156b565b915061113182611cd7565b601b82019050919050565b600061114960028361156b565b915061115482611d00565b600282019050919050565b600061116c60468361156b565b915061117782611d29565b604682019050919050565b600061118f60138361156b565b915061119a82611d9e565b601382019050919050565b6111ae816116bd565b82525050565b6111c56111c0826116bd565b611774565b82525050565b60006111d78285610dc2565b91506111e38284610dc2565b91508190509392505050565b60006111fb8285610e2c565b915061120682610f98565b91506112128284610e2c565b915061121d82610ec6565b91508190509392505050565b60006112358288610e2c565b915061124082610fbb565b915061124c8287610e2c565b915061125782611047565b91506112638286610e2c565b915061126e82611047565b915061127a8285610e2c565b915061128582610f75565b91506112918284610e2c565b915061129c826110d3565b91508190509695505050505050565b60006112b78285610e2c565b91506112c28261106a565b91506112ce8284610e2c565b91508190509392505050565b60006112e582610ea3565b91506112f18286610e2c565b91506112fc82611001565b91506113088285610e2c565b91506113138261113c565b915061131f8284610e2c565b9150819050949350505050565b600061133782610f52565b91506113438286610e2c565b915061134e82610f2f565b915061135a8285610e2c565b915061136582610e5d565b91506113718284610e2c565b915061137c8261108d565b9150819050949350505050565b6000611394826110f6565b91506113a08285610e2c565b91506113ab8261115f565b91506113b78284610e2c565b91506113c282610fde565b91508190509392505050565b60006113d982611119565b91506113e58287610e2c565b91506113f082611024565b91506113fc8286610e2c565b915061140782610e80565b91506114138285610e2c565b915061141e82610ee9565b915061142a8284610e2c565b9150611435826110b0565b915081905095945050505050565b600061144e82611182565b915061145a8284610e2c565b915061146582610f0c565b915081905092915050565b600061147c82846111b4565b60208201915081905092915050565b60006020820190506114a06000830184610db3565b92915050565b600060208201905081810360008301526114c08184610df3565b905092915050565b60006020820190506114dd60008301846111a5565b92915050565b60006114ed6114fe565b90506114f982826116fa565b919050565b6000604051905090565b600067ffffffffffffffff8211156115235761152261180d565b5b61152c8261183c565b9050602081019050919050565b600081519050919050565b600081519050919050565b600081905092915050565b600082825260208201905092915050565b600081905092915050565b6000611581826116bd565b915061158c836116bd565b9250827fffffffffffffffffffffffffffffffffffffffffffffffffffffffffffffffff038211156115c1576115c06117af565b5b828201905092915050565b60006115d7826116bd565b91506115e2836116bd565b9250826115f2576115f16117de565b5b828204905092915050565b6000611608826116bd565b9150611613836116bd565b9250817fffffffffffffffffffffffffffffffffffffffffffffffffffffffffffffffff048311821515161561164c5761164b6117af565b5b828202905092915050565b6000611662826116bd565b915061166d836116bd565b9250828210156116805761167f6117af565b5b828203905092915050565b60006116968261169d565b9050919050565b600073ffffffffffffffffffffffffffffffffffffffff82169050919050565b6000819050919050565b60005b838110156116e55780820151818401526020810190506116ca565b838111156116f4576000848401525b50505050565b6117038261183c565b810181811067ffffffffffffffff821117156117225761172161180d565b5b80604052505050565b6000611736826116bd565b91507fffffffffffffffffffffffffffffffffffffffffffffffffffffffffffffffff821415611769576117686117af565b5b600182019050919050565b6000819050919050565b6000611789826116bd565b9150611794836116bd565b9250826117a4576117a36117de565b5b828206905092915050565b7f4e487b7100000000000000000000000000000000000000000000000000000000600052601160045260246000fd5b7f4e487b7100000000000000000000000000000000000000000000000000000000600052601260045260246000fd5b7f4e487b7100000000000000000000000000000000000000000000000000000000600052604160045260246000fd5b6000601f19601f8301169050919050565b7f222c22696d616765223a22646174613a696d6167652f7376672b786d6c3b626160008201527f736536342c000000000000000000000000000000000000000000000000000000602082015250565b7f292220666f6e742d73697a653d22000000000000000000000000000000000000600082015250565b7f3c7465787420636c6173733d22636c732d322220783d22000000000000000000600082015250565b7f732220726570656174436f756e743d22696e646566696e697465222f3e000000600082015250565b7f7078223e00000000000000000000000000000000000000000000000000000000600082015250565b7f7d2e636c732d327b66696c6c3a726762283234312c3230352c313436293b7d2e60008201527f636c732d342c2e636c732d357b666f6e742d73697a653a323070783b66696c6c60208201527f3a726762283234312c3230352c313436293b7d2e636c732d347b746578742d6160408201527f6e63686f723a206d6964646c653b7d2e636c732d357b746578742d616e63686f60608201527f723a20656e643b7d3c2f7374796c653e00000000000000000000000000000000608082015250565b7f222c226465736372697074696f6e223a22000000000000000000000000000000600082015250565b7f7b226e616d65223a22576f726473202300000000000000000000000000000000600082015250565b7f222063616c634d6f64653d22706163656422206475723d220000000000000000600082015250565b7f3c616e696d617465206174747269627574654e616d653d226f7061636974792260008201527f2076616c7565733d22303b302e353b3022206475723d22000000000000000000602082015250565b7f3c616e696d617465206174747269627574654e616d653d2279222076616c756560008201527f733d220000000000000000000000000000000000000000000000000000000000602082015250565b7f3c2f746578743e3c2f7376673e00000000000000000000000000000000000000600082015250565b7f2220666f6e742d73697a653d2200000000000000000000000000000000000000600082015250565b7f2000000000000000000000000000000000000000000000000000000000000000600082015250565b7f3b00000000000000000000000000000000000000000000000000000000000000600082015250565b7f2e00000000000000000000000000000000000000000000000000000000000000600082015250565b7f227d000000000000000000000000000000000000000000000000000000000000600082015250565b7f3c2f746578743e00000000000000000000000000000000000000000000000000600082015250565b7f732220726570656174436f756e743d22696e646566696e697465222f3e3c2f7460008201527f6578743e00000000000000000000000000000000000000000000000000000000602082015250565b7f3c7465787420783d223230302220793d22343330222077696474683d2233323060008201527f22206865696768743d2233302220636c6173733d22636c732d34223e22000000602082015250565b7f3c74657874207472616e73666f726d3d227472616e736c617465280000000000600082015250565b7f223e000000000000000000000000000000000000000000000000000000000000600082015250565b7f223c2f746578743e3c7465787420636c6173733d22636c732d352220783d223360008201527f36302220793d22353030222077696474683d2233323022206865696768743d2260208201527f3330223e2d2d0000000000000000000000000000000000000000000000000000604082015250565b7f3c7374796c653e2e636c732d317b66696c6c3a00000000000000000000000000600082015250565b611dd0816116bd565b8114611ddb57600080fd5b5056fe4142434445464748494a4b4c4d4e4f505152535455565758595a6162636465666768696a6b6c6d6e6f707172737475767778797a303132333435363738392b2f3c7265637420636c6173733d22636c732d31222077696474683d2234303022206865696768743d22363030222f3e3c73766720786d6c6e733d22687474703a2f2f7777772e77332e6f72672f323030302f737667222077696474683d2234303022206865696768743d22363030223ea264697066735822122066b5d0ec622f05a51ba857efd110180b67cbcd11bacf14acd12e3adad058784564736f6c63430008030033",
  "linkReferences": {},
  "deployedLinkReferences": {}
}