{
  "_format": "hh-sol-artifact-1",
  "contractName": "GiftNFT",
  "sourceName": "contracts/GiftNFT.sol",
  "abi": [
    {
      "inputs": [],
      "stateMutability": "nonpayable",
      "type": "constructor"
    },
    {
      "anonymous": false,
      "inputs": [
        {
          "indexed": true,
          "internalType": "address",
          "name": "owner",
          "type": "address"
        },
        {
          "indexed": true,
          "internalType": "address",
          "name": "approved",
          "type": "address"
        },
        {
          "indexed": true,
          "internalType": "uint256",
          "name": "tokenId",
          "type": "uint256"
        }
      ],
      "name": "Approval",
      "type": "event"
    },
    {
      "anonymous": false,
      "inputs": [
        {
          "indexed": true,
          "internalType": "address",
          "name": "owner",
          "type": "address"
        },
        {
          "indexed": true,
          "internalType": "address",
          "name": "operator",
          "type": "address"
        },
        {
          "indexed": false,
          "internalType": "bool",
          "name": "approved",
          "type": "bool"
        }
      ],
      "name": "ApprovalForAll",
      "type": "event"
    },
    {
      "anonymous": false,
      "inputs": [
        {
          "indexed": true,
          "internalType": "address",
          "name": "from",
          "type": "address"
        },
        {
          "indexed": true,
          "internalType": "address",
          "name": "to",
          "type": "address"
        },
        {
          "indexed": true,
          "internalType": "uint256",
          "name": "tokenId",
          "type": "uint256"
        }
      ],
      "name": "Transfer",
      "type": "event"
    },
    {
      "inputs": [
        {
          "internalType": "address",
          "name": "to",
          "type": "address"
        },
        {
          "internalType": "uint256",
          "name": "tokenId",
          "type": "uint256"
        }
      ],
      "name": "approve",
      "outputs": [],
      "stateMutability": "nonpayable",
      "type": "function"
    },
    {
      "inputs": [
        {
          "internalType": "address",
          "name": "owner",
          "type": "address"
        }
      ],
      "name": "balanceOf",
      "outputs": [
        {
          "internalType": "uint256",
          "name": "",
          "type": "uint256"
        }
      ],
      "stateMutability": "view",
      "type": "function"
    },
    {
      "inputs": [
        {
          "internalType": "uint256",
          "name": "tokenId",
          "type": "uint256"
        }
      ],
      "name": "getApproved",
      "outputs": [
        {
          "internalType": "address",
          "name": "",
          "type": "address"
        }
      ],
      "stateMutability": "view",
      "type": "function"
    },
    {
      "inputs": [
        {
          "internalType": "address",
          "name": "owner",
          "type": "address"
        },
        {
          "internalType": "address",
          "name": "operator",
          "type": "address"
        }
      ],
      "name": "isApprovedForAll",
      "outputs": [
        {
          "internalType": "bool",
          "name": "",
          "type": "bool"
        }
      ],
      "stateMutability": "view",
      "type": "function"
    },
    {
      "inputs": [
        {
          "internalType": "uint256",
          "name": "num",
          "type": "uint256"
        },
        {
          "internalType": "bool",
          "name": "isRandom",
          "type": "bool"
        },
        {
          "internalType": "address",
          "name": "uriContract",
          "type": "address"
        }
      ],
      "name": "mint",
      "outputs": [],
      "stateMutability": "payable",
      "type": "function"
    },
    {
      "inputs": [],
      "name": "minted",
      "outputs": [
        {
          "internalType": "uint256",
          "name": "",
          "type": "uint256"
        }
      ],
      "stateMutability": "view",
      "type": "function"
    },
    {
      "inputs": [],
      "name": "name",
      "outputs": [
        {
          "internalType": "string",
          "name": "",
          "type": "string"
        }
      ],
      "stateMutability": "view",
      "type": "function"
    },
    {
      "inputs": [
        {
          "internalType": "uint256",
          "name": "tokenId",
          "type": "uint256"
        }
      ],
      "name": "open",
      "outputs": [],
      "stateMutability": "nonpayable",
      "type": "function"
    },
    {
      "inputs": [
        {
          "internalType": "uint256",
          "name": "tokenId",
          "type": "uint256"
        }
      ],
      "name": "ownerOf",
      "outputs": [
        {
          "internalType": "address",
          "name": "",
          "type": "address"
        }
      ],
      "stateMutability": "view",
      "type": "function"
    },
    {
      "inputs": [
        {
          "internalType": "address",
          "name": "from",
          "type": "address"
        },
        {
          "internalType": "address",
          "name": "to",
          "type": "address"
        },
        {
          "internalType": "uint256",
          "name": "tokenId",
          "type": "uint256"
        }
      ],
      "name": "safeTransferFrom",
      "outputs": [],
      "stateMutability": "nonpayable",
      "type": "function"
    },
    {
      "inputs": [
        {
          "internalType": "address",
          "name": "from",
          "type": "address"
        },
        {
          "internalType": "address",
          "name": "to",
          "type": "address"
        },
        {
          "internalType": "uint256",
          "name": "tokenId",
          "type": "uint256"
        },
        {
          "internalType": "bytes",
          "name": "_data",
          "type": "bytes"
        }
      ],
      "name": "safeTransferFrom",
      "outputs": [],
      "stateMutability": "nonpayable",
      "type": "function"
    },
    {
      "inputs": [
        {
          "internalType": "address",
          "name": "operator",
          "type": "address"
        },
        {
          "internalType": "bool",
          "name": "approved",
          "type": "bool"
        }
      ],
      "name": "setApprovalForAll",
      "outputs": [],
      "stateMutability": "nonpayable",
      "type": "function"
    },
    {
      "inputs": [
        {
          "internalType": "bytes4",
          "name": "interfaceId",
          "type": "bytes4"
        }
      ],
      "name": "supportsInterface",
      "outputs": [
        {
          "internalType": "bool",
          "name": "",
          "type": "bool"
        }
      ],
      "stateMutability": "view",
      "type": "function"
    },
    {
      "inputs": [],
      "name": "symbol",
      "outputs": [
        {
          "internalType": "string",
          "name": "",
          "type": "string"
        }
      ],
      "stateMutability": "view",
      "type": "function"
    },
    {
      "inputs": [
        {
          "internalType": "uint256",
          "name": "index",
          "type": "uint256"
        }
      ],
      "name": "tokenByIndex",
      "outputs": [
        {
          "internalType": "uint256",
          "name": "",
          "type": "uint256"
        }
      ],
      "stateMutability": "view",
      "type": "function"
    },
    {
      "inputs": [
        {
          "internalType": "uint256",
          "name": "",
          "type": "uint256"
        }
      ],
      "name": "tokenIdToInfo",
      "outputs": [
        {
          "internalType": "uint256",
          "name": "tokenId",
          "type": "uint256"
        },
        {
          "internalType": "address",
          "name": "creator",
          "type": "address"
        },
        {
          "internalType": "uint256",
          "name": "ethAmount",
          "type": "uint256"
        },
        {
          "internalType": "address",
          "name": "uriContract",
          "type": "address"
        }
      ],
      "stateMutability": "view",
      "type": "function"
    },
    {
      "inputs": [
        {
          "internalType": "address",
          "name": "owner",
          "type": "address"
        },
        {
          "internalType": "uint256",
          "name": "index",
          "type": "uint256"
        }
      ],
      "name": "tokenOfOwnerByIndex",
      "outputs": [
        {
          "internalType": "uint256",
          "name": "",
          "type": "uint256"
        }
      ],
      "stateMutability": "view",
      "type": "function"
    },
    {
      "inputs": [
        {
          "internalType": "uint256",
          "name": "tokenId",
          "type": "uint256"
        }
      ],
      "name": "tokenURI",
      "outputs": [
        {
          "internalType": "string",
          "name": "",
          "type": "string"
        }
      ],
      "stateMutability": "view",
      "type": "function"
    },
    {
      "inputs": [],
      "name": "totalSupply",
      "outputs": [
        {
          "internalType": "uint256",
          "name": "",
          "type": "uint256"
        }
      ],
      "stateMutability": "view",
      "type": "function"
    },
    {
      "inputs": [
        {
          "internalType": "address",
          "name": "from",
          "type": "address"
        },
        {
          "internalType": "address",
          "name": "to",
          "type": "address"
        },
        {
          "internalType": "uint256",
          "name": "tokenId",
          "type": "uint256"
        }
      ],
      "name": "transferFrom",
      "outputs": [],
      "stateMutability": "nonpayable",
      "type": "function"
    },
    {
      "stateMutability": "payable",
      "type": "receive"
    }
  ],
  "bytecode": "0x60806040523480156200001157600080fd5b506040518060400160405280600781526020017f476966744e4654000000000000000000000000000000000000000000000000008152506040518060400160405280600781526020017f476966744e465400000000000000000000000000000000000000000000000000815250816000908051906020019062000096929190620000c0565b508060019080519060200190620000af929190620000c0565b5050506001600a81905550620001d5565b828054620000ce9062000170565b90600052602060002090601f016020900481019282620000f257600085556200013e565b82601f106200010d57805160ff19168380011785556200013e565b828001600101855582156200013e579182015b828111156200013d57825182559160200191906001019062000120565b5b5090506200014d919062000151565b5090565b5b808211156200016c57600081600090555060010162000152565b5090565b600060028204905060018216806200018957607f821691505b60208210811415620001a0576200019f620001a6565b5b50919050565b7f4e487b7100000000000000000000000000000000000000000000000000000000600052602260045260246000fd5b61381b80620001e56000396000f3fe6080604052600436106101235760003560e01c80636352211e116100a0578063b88d4fde11610064578063b88d4fde14610416578063c87b56dd1461043f578063d3dbcd2a1461047c578063e985e9c514610498578063ff69ea90146104d55761012a565b80636352211e1461031f578063690e7c091461035c57806370a082311461038557806395d89b41146103c2578063a22cb465146103ed5761012a565b806323b872dd116100e757806323b872dd146102285780632f745c591461025157806342842e0e1461028e5780634f02c420146102b75780634f6ccce7146102e25761012a565b806301ffc9a71461012f57806306fdde031461016c578063081812fc14610197578063095ea7b3146101d457806318160ddd146101fd5761012a565b3661012a57005b600080fd5b34801561013b57600080fd5b5061015660048036038101906101519190612864565b610515565b6040516101639190612cb4565b60405180910390f35b34801561017857600080fd5b5061018161058f565b60405161018e9190612ccf565b60405180910390f35b3480156101a357600080fd5b506101be60048036038101906101b991906128f7565b610621565b6040516101cb9190612c4d565b60405180910390f35b3480156101e057600080fd5b506101fb60048036038101906101f69190612828565b6106a6565b005b34801561020957600080fd5b506102126107be565b60405161021f9190612ed1565b60405180910390f35b34801561023457600080fd5b5061024f600480360381019061024a9190612722565b6107cb565b005b34801561025d57600080fd5b5061027860048036038101906102739190612828565b61082b565b6040516102859190612ed1565b60405180910390f35b34801561029a57600080fd5b506102b560048036038101906102b09190612722565b6108d0565b005b3480156102c357600080fd5b506102cc6108f0565b6040516102d99190612ed1565b60405180910390f35b3480156102ee57600080fd5b50610309600480360381019061030491906128f7565b6108f6565b6040516103169190612ed1565b60405180910390f35b34801561032b57600080fd5b50610346600480360381019061034191906128f7565b61098d565b6040516103539190612c4d565b60405180910390f35b34801561036857600080fd5b50610383600480360381019061037e91906128f7565b6109cf565b005b34801561039157600080fd5b506103ac60048036038101906103a791906126bd565b610c49565b6040516103b99190612ed1565b60405180910390f35b3480156103ce57600080fd5b506103d7610c92565b6040516103e49190612ccf565b60405180910390f35b3480156103f957600080fd5b50610414600480360381019061040f91906127ec565b610d24565b005b34801561042257600080fd5b5061043d60048036038101906104389190612771565b610ea5565b005b34801561044b57600080fd5b50610466600480360381019061046191906128f7565b610f07565b6040516104739190612ccf565b60405180910390f35b61049660048036038101906104919190612920565b6110e1565b005b3480156104a457600080fd5b506104bf60048036038101906104ba91906126e6565b6112f7565b6040516104cc9190612cb4565b60405180910390f35b3480156104e157600080fd5b506104fc60048036038101906104f791906128f7565b61138b565b60405161050c9493929190612f23565b60405180910390f35b60007f780e9d63000000000000000000000000000000000000000000000000000000007bffffffffffffffffffffffffffffffffffffffffffffffffffffffff1916827bffffffffffffffffffffffffffffffffffffffffffffffffffffffff191614806105885750610587826113fb565b5b9050919050565b60606000805461059e906131f2565b80601f01602080910402602001604051908101604052809291908181526020018280546105ca906131f2565b80156106175780601f106105ec57610100808354040283529160200191610617565b820191906000526020600020905b8154815290600101906020018083116105fa57829003601f168201915b5050505050905090565b600061062c826114dd565b61066b576040517f08c379a000000000000000000000000000000000000000000000000000000000815260040161066290612e11565b60405180910390fd5b6004600083815260200190815260200160002060009054906101000a900473ffffffffffffffffffffffffffffffffffffffff169050919050565b60006106b18261098d565b90508073ffffffffffffffffffffffffffffffffffffffff168373ffffffffffffffffffffffffffffffffffffffff161415610722576040517f08c379a000000000000000000000000000000000000000000000000000000000815260040161071990612e51565b60405180910390fd5b8073ffffffffffffffffffffffffffffffffffffffff16610741611549565b73ffffffffffffffffffffffffffffffffffffffff161480610770575061076f8161076a611549565b6112f7565b5b6107af576040517f08c379a00000000000000000000000000000000000000000000000000000000081526004016107a690612db1565b60405180910390fd5b6107b98383611551565b505050565b6000600880549050905090565b6107dc6107d6611549565b8261160a565b61081b576040517f08c379a000000000000000000000000000000000000000000000000000000000815260040161081290612e71565b60405180910390fd5b6108268383836116e8565b505050565b600061083683610c49565b8210610877576040517f08c379a000000000000000000000000000000000000000000000000000000000815260040161086e90612cf1565b60405180910390fd5b600660008473ffffffffffffffffffffffffffffffffffffffff1673ffffffffffffffffffffffffffffffffffffffff168152602001908152602001600020600083815260200190815260200160002054905092915050565b6108eb83838360405180602001604052806000815250610ea5565b505050565b600b5481565b60006109006107be565b8210610941576040517f08c379a000000000000000000000000000000000000000000000000000000000815260040161093890612e91565b60405180910390fd5b6008828154811061097b577f4e487b7100000000000000000000000000000000000000000000000000000000600052603260045260246000fd5b90600052602060002001549050919050565b6000806002600084815260200190815260200160002060009054906101000a900473ffffffffffffffffffffffffffffffffffffffff16905080915050919050565b6002600a541415610a15576040517f08c379a0000000000000000000000000000000000000000000000000000000008152600401610a0c90612eb1565b60405180910390fd5b6002600a819055503373ffffffffffffffffffffffffffffffffffffffff16610a3d8261098d565b73ffffffffffffffffffffffffffffffffffffffff1614610a93576040517f08c379a0000000000000000000000000000000000000000000000000000000008152600401610a8a90612df1565b60405180910390fd5b6000600c6000838152602001908152602001600020604051806080016040529081600082015481526020016001820160009054906101000a900473ffffffffffffffffffffffffffffffffffffffff1673ffffffffffffffffffffffffffffffffffffffff1673ffffffffffffffffffffffffffffffffffffffff168152602001600282015481526020016003820160009054906101000a900473ffffffffffffffffffffffffffffffffffffffff1673ffffffffffffffffffffffffffffffffffffffff1673ffffffffffffffffffffffffffffffffffffffff168152505090503373ffffffffffffffffffffffffffffffffffffffff166108fc82604001519081150290604051600060405180830381858888f19350505050158015610bbf573d6000803e3d6000fd5b50600c60008381526020019081526020016000206000808201600090556001820160006101000a81549073ffffffffffffffffffffffffffffffffffffffff021916905560028201600090556003820160006101000a81549073ffffffffffffffffffffffffffffffffffffffff02191690555050610c3d82611944565b506001600a8190555050565b6000600360008373ffffffffffffffffffffffffffffffffffffffff1673ffffffffffffffffffffffffffffffffffffffff168152602001908152602001600020549050919050565b606060018054610ca1906131f2565b80601f0160208091040260200160405190810160405280929190818152602001828054610ccd906131f2565b8015610d1a5780601f10610cef57610100808354040283529160200191610d1a565b820191906000526020600020905b815481529060010190602001808311610cfd57829003601f168201915b5050505050905090565b610d2c611549565b73ffffffffffffffffffffffffffffffffffffffff168273ffffffffffffffffffffffffffffffffffffffff161415610d9a576040517f08c379a0000000000000000000000000000000000000000000000000000000008152600401610d9190612d71565b60405180910390fd5b8060056000610da7611549565b73ffffffffffffffffffffffffffffffffffffffff1673ffffffffffffffffffffffffffffffffffffffff16815260200190815260200160002060008473ffffffffffffffffffffffffffffffffffffffff1673ffffffffffffffffffffffffffffffffffffffff16815260200190815260200160002060006101000a81548160ff0219169083151502179055508173ffffffffffffffffffffffffffffffffffffffff16610e54611549565b73ffffffffffffffffffffffffffffffffffffffff167f17307eab39ab6107e8899845ad3d59bd9653f200f220920489ca2b5937696c3183604051610e999190612cb4565b60405180910390a35050565b610eb6610eb0611549565b8361160a565b610ef5576040517f08c379a0000000000000000000000000000000000000000000000000000000008152600401610eec90612e71565b60405180910390fd5b610f0184848484611a55565b50505050565b60606000600c6000848152602001908152602001600020604051806080016040529081600082015481526020016001820160009054906101000a900473ffffffffffffffffffffffffffffffffffffffff1673ffffffffffffffffffffffffffffffffffffffff1673ffffffffffffffffffffffffffffffffffffffff168152602001600282015481526020016003820160009054906101000a900473ffffffffffffffffffffffffffffffffffffffff1673ffffffffffffffffffffffffffffffffffffffff1673ffffffffffffffffffffffffffffffffffffffff16815250509050600081604001511415611036576040518060400160405280602081526020017f476966744e46543a746f6b656e5552493a3a20746f6b656e4964206572726f728152509150506110dc565b806060015173ffffffffffffffffffffffffffffffffffffffff1663e3ce0585846110608661098d565b84604001516040518463ffffffff1660e01b815260040161108393929190612eec565b60006040518083038186803b15801561109b57600080fd5b505afa1580156110af573d6000803e3d6000fd5b505050506040513d6000823e3d601f19601f820116820180604052508101906110d891906128b6565b9150505b919050565b6002600a541415611127576040517f08c379a000000000000000000000000000000000000000000000000000000000815260040161111e90612eb1565b60405180910390fd5b6002600a819055503073ffffffffffffffffffffffffffffffffffffffff166108fc349081150290604051600060405180830381858888f19350505050158015611175573d6000803e3d6000fd5b50600082156112a557600080611189612560565b600093505b86841015611214576111ad60018886426111a89190613027565b611ab1565b91508181856103e881106111ea577f4e487b7100000000000000000000000000000000000000000000000000000000600052603260045260246000fd5b60200201818152505081836111ff9190613027565b9250838061120c90613255565b94505061118e565b600093505b8684101561129d5780846103e8811061125b577f4e487b7100000000000000000000000000000000000000000000000000000000600052603260045260246000fd5b6020020151915061128a61126d611549565b84843461127a91906130ae565b611284919061307d565b87611b08565b838061129590613255565b945050611219565b5050506112e9565b600084346112b3919061307d565b9050600091505b848210156112e7576112d46112cd611549565b8285611b08565b81806112df90613255565b9250506112ba565b505b506001600a81905550505050565b6000600560008473ffffffffffffffffffffffffffffffffffffffff1673ffffffffffffffffffffffffffffffffffffffff16815260200190815260200160002060008373ffffffffffffffffffffffffffffffffffffffff1673ffffffffffffffffffffffffffffffffffffffff16815260200190815260200160002060009054906101000a900460ff16905092915050565b600c6020528060005260406000206000915090508060000154908060010160009054906101000a900473ffffffffffffffffffffffffffffffffffffffff16908060020154908060030160009054906101000a900473ffffffffffffffffffffffffffffffffffffffff16905084565b60007f80ac58cd000000000000000000000000000000000000000000000000000000007bffffffffffffffffffffffffffffffffffffffffffffffffffffffff1916827bffffffffffffffffffffffffffffffffffffffffffffffffffffffff191614806114c657507f5b5e139f000000000000000000000000000000000000000000000000000000007bffffffffffffffffffffffffffffffffffffffffffffffffffffffff1916827bffffffffffffffffffffffffffffffffffffffffffffffffffffffff1916145b806114d657506114d582611c41565b5b9050919050565b60008073ffffffffffffffffffffffffffffffffffffffff166002600084815260200190815260200160002060009054906101000a900473ffffffffffffffffffffffffffffffffffffffff1673ffffffffffffffffffffffffffffffffffffffff1614159050919050565b600033905090565b816004600083815260200190815260200160002060006101000a81548173ffffffffffffffffffffffffffffffffffffffff021916908373ffffffffffffffffffffffffffffffffffffffff160217905550808273ffffffffffffffffffffffffffffffffffffffff166115c48361098d565b73ffffffffffffffffffffffffffffffffffffffff167f8c5be1e5ebec7d5bd14f71427d1e84f3dd0314c0f7b2291e5b200ac8c7c3b92560405160405180910390a45050565b6000611615826114dd565b611654576040517f08c379a000000000000000000000000000000000000000000000000000000000815260040161164b90612d91565b60405180910390fd5b600061165f8361098d565b90508073ffffffffffffffffffffffffffffffffffffffff168473ffffffffffffffffffffffffffffffffffffffff1614806116ce57508373ffffffffffffffffffffffffffffffffffffffff166116b684610621565b73ffffffffffffffffffffffffffffffffffffffff16145b806116df57506116de81856112f7565b5b91505092915050565b8273ffffffffffffffffffffffffffffffffffffffff166117088261098d565b73ffffffffffffffffffffffffffffffffffffffff161461175e576040517f08c379a000000000000000000000000000000000000000000000000000000000815260040161175590612e31565b60405180910390fd5b600073ffffffffffffffffffffffffffffffffffffffff168273ffffffffffffffffffffffffffffffffffffffff1614156117ce576040517f08c379a00000000000000000000000000000000000000000000000000000000081526004016117c590612d51565b60405180910390fd5b6117d9838383611cab565b6117e4600082611551565b6001600360008573ffffffffffffffffffffffffffffffffffffffff1673ffffffffffffffffffffffffffffffffffffffff16815260200190815260200160002060008282546118349190613108565b925050819055506001600360008473ffffffffffffffffffffffffffffffffffffffff1673ffffffffffffffffffffffffffffffffffffffff168152602001908152602001600020600082825461188b9190613027565b92505081905550816002600083815260200190815260200160002060006101000a81548173ffffffffffffffffffffffffffffffffffffffff021916908373ffffffffffffffffffffffffffffffffffffffff160217905550808273ffffffffffffffffffffffffffffffffffffffff168473ffffffffffffffffffffffffffffffffffffffff167fddf252ad1be2c89b69c2b068fc378daa952ba7f163c4a11628f55a4df523b3ef60405160405180910390a4505050565b600061194f8261098d565b905061195d81600084611cab565b611968600083611551565b6001600360008373ffffffffffffffffffffffffffffffffffffffff1673ffffffffffffffffffffffffffffffffffffffff16815260200190815260200160002060008282546119b89190613108565b925050819055506002600083815260200190815260200160002060006101000a81549073ffffffffffffffffffffffffffffffffffffffff021916905581600073ffffffffffffffffffffffffffffffffffffffff168273ffffffffffffffffffffffffffffffffffffffff167fddf252ad1be2c89b69c2b068fc378daa952ba7f163c4a11628f55a4df523b3ef60405160405180910390a45050565b611a608484846116e8565b611a6c84848484611dbf565b611aab576040517f08c379a0000000000000000000000000000000000000000000000000000000008152600401611aa290612d11565b60405180910390fd5b50505050565b600080611abd83611f56565b905061271081611acd91906132a8565b9050846127108686611adf9190613108565b83611aea91906130ae565b611af4919061307d565b611afe9190613027565b9150509392505050565b600b6000815480929190611b1b90613255565b91905055506040518060800160405280600b548152602001611b3b611549565b73ffffffffffffffffffffffffffffffffffffffff1681526020018381526020018273ffffffffffffffffffffffffffffffffffffffff16815250600c6000600b5481526020019081526020016000206000820151816000015560208201518160010160006101000a81548173ffffffffffffffffffffffffffffffffffffffff021916908373ffffffffffffffffffffffffffffffffffffffff1602179055506040820151816002015560608201518160030160006101000a81548173ffffffffffffffffffffffffffffffffffffffff021916908373ffffffffffffffffffffffffffffffffffffffff160217905550905050611c3c83600b54611f89565b505050565b60007f01ffc9a7000000000000000000000000000000000000000000000000000000007bffffffffffffffffffffffffffffffffffffffffffffffffffffffff1916827bffffffffffffffffffffffffffffffffffffffffffffffffffffffff1916149050919050565b611cb6838383611fa7565b600073ffffffffffffffffffffffffffffffffffffffff168373ffffffffffffffffffffffffffffffffffffffff161415611cf957611cf481611fac565b611d38565b8173ffffffffffffffffffffffffffffffffffffffff168373ffffffffffffffffffffffffffffffffffffffff1614611d3757611d368382611ff5565b5b5b600073ffffffffffffffffffffffffffffffffffffffff168273ffffffffffffffffffffffffffffffffffffffff161415611d7b57611d7681612162565b611dba565b8273ffffffffffffffffffffffffffffffffffffffff168273ffffffffffffffffffffffffffffffffffffffff1614611db957611db882826122a5565b5b5b505050565b6000611de08473ffffffffffffffffffffffffffffffffffffffff16612324565b15611f49578373ffffffffffffffffffffffffffffffffffffffff1663150b7a02611e09611549565b8786866040518563ffffffff1660e01b8152600401611e2b9493929190612c68565b602060405180830381600087803b158015611e4557600080fd5b505af1925050508015611e7657506040513d601f19601f82011682018060405250810190611e73919061288d565b60015b611ef9573d8060008114611ea6576040519150601f19603f3d011682016040523d82523d6000602084013e611eab565b606091505b50600081511415611ef1576040517f08c379a0000000000000000000000000000000000000000000000000000000008152600401611ee890612d11565b60405180910390fd5b805181602001fd5b63150b7a0260e01b7bffffffffffffffffffffffffffffffffffffffffffffffffffffffff1916817bffffffffffffffffffffffffffffffffffffffffffffffffffffffff191614915050611f4e565b600190505b949350505050565b600081604051602001611f699190612c32565b6040516020818303038152906040528051906020012060001c9050919050565b611fa3828260405180602001604052806000815250612337565b5050565b505050565b6008805490506009600083815260200190815260200160002081905550600881908060018154018082558091505060019003906000526020600020016000909190919091505550565b6000600161200284610c49565b61200c9190613108565b90506000600760008481526020019081526020016000205490508181146120f1576000600660008673ffffffffffffffffffffffffffffffffffffffff1673ffffffffffffffffffffffffffffffffffffffff168152602001908152602001600020600084815260200190815260200160002054905080600660008773ffffffffffffffffffffffffffffffffffffffff1673ffffffffffffffffffffffffffffffffffffffff168152602001908152602001600020600084815260200190815260200160002081905550816007600083815260200190815260200160002081905550505b6007600084815260200190815260200160002060009055600660008573ffffffffffffffffffffffffffffffffffffffff1673ffffffffffffffffffffffffffffffffffffffff16815260200190815260200160002060008381526020019081526020016000206000905550505050565b600060016008805490506121769190613108565b90506000600960008481526020019081526020016000205490506000600883815481106121cc577f4e487b7100000000000000000000000000000000000000000000000000000000600052603260045260246000fd5b906000526020600020015490508060088381548110612214577f4e487b7100000000000000000000000000000000000000000000000000000000600052603260045260246000fd5b906000526020600020018190555081600960008381526020019081526020016000208190555060096000858152602001908152602001600020600090556008805480612289577f4e487b7100000000000000000000000000000000000000000000000000000000600052603160045260246000fd5b6001900381819060005260206000200160009055905550505050565b60006122b083610c49565b905081600660008573ffffffffffffffffffffffffffffffffffffffff1673ffffffffffffffffffffffffffffffffffffffff168152602001908152602001600020600083815260200190815260200160002081905550806007600084815260200190815260200160002081905550505050565b600080823b905060008111915050919050565b6123418383612392565b61234e6000848484611dbf565b61238d576040517f08c379a000000000000000000000000000000000000000000000000000000000815260040161238490612d11565b60405180910390fd5b505050565b600073ffffffffffffffffffffffffffffffffffffffff168273ffffffffffffffffffffffffffffffffffffffff161415612402576040517f08c379a00000000000000000000000000000000000000000000000000000000081526004016123f990612dd1565b60405180910390fd5b61240b816114dd565b1561244b576040517f08c379a000000000000000000000000000000000000000000000000000000000815260040161244290612d31565b60405180910390fd5b61245760008383611cab565b6001600360008473ffffffffffffffffffffffffffffffffffffffff1673ffffffffffffffffffffffffffffffffffffffff16815260200190815260200160002060008282546124a79190613027565b92505081905550816002600083815260200190815260200160002060006101000a81548173ffffffffffffffffffffffffffffffffffffffff021916908373ffffffffffffffffffffffffffffffffffffffff160217905550808273ffffffffffffffffffffffffffffffffffffffff16600073ffffffffffffffffffffffffffffffffffffffff167fddf252ad1be2c89b69c2b068fc378daa952ba7f163c4a11628f55a4df523b3ef60405160405180910390a45050565b60405180617d0001604052806103e890602082028036833780820191505090505090565b600061259761259284612f8d565b612f68565b9050828152602081018484840111156125af57600080fd5b6125ba8482856131b0565b509392505050565b60006125d56125d084612fbe565b612f68565b9050828152602081018484840111156125ed57600080fd5b6125f88482856131bf565b509392505050565b60008135905061260f81613789565b92915050565b600081359050612624816137a0565b92915050565b600081359050612639816137b7565b92915050565b60008151905061264e816137b7565b92915050565b600082601f83011261266557600080fd5b8135612675848260208601612584565b91505092915050565b600082601f83011261268f57600080fd5b815161269f8482602086016125c2565b91505092915050565b6000813590506126b7816137ce565b92915050565b6000602082840312156126cf57600080fd5b60006126dd84828501612600565b91505092915050565b600080604083850312156126f957600080fd5b600061270785828601612600565b925050602061271885828601612600565b9150509250929050565b60008060006060848603121561273757600080fd5b600061274586828701612600565b935050602061275686828701612600565b9250506040612767868287016126a8565b9150509250925092565b6000806000806080858703121561278757600080fd5b600061279587828801612600565b94505060206127a687828801612600565b93505060406127b7878288016126a8565b925050606085013567ffffffffffffffff8111156127d457600080fd5b6127e087828801612654565b91505092959194509250565b600080604083850312156127ff57600080fd5b600061280d85828601612600565b925050602061281e85828601612615565b9150509250929050565b6000806040838503121561283b57600080fd5b600061284985828601612600565b925050602061285a858286016126a8565b9150509250929050565b60006020828403121561287657600080fd5b60006128848482850161262a565b91505092915050565b60006020828403121561289f57600080fd5b60006128ad8482850161263f565b91505092915050565b6000602082840312156128c857600080fd5b600082015167ffffffffffffffff8111156128e257600080fd5b6128ee8482850161267e565b91505092915050565b60006020828403121561290957600080fd5b6000612917848285016126a8565b91505092915050565b60008060006060848603121561293557600080fd5b6000612943868287016126a8565b935050602061295486828701612615565b925050604061296586828701612600565b9150509250925092565b6129788161313c565b82525050565b6129878161314e565b82525050565b600061299882612fef565b6129a28185613005565b93506129b28185602086016131bf565b6129bb81613395565b840191505092915050565b60006129d182612ffa565b6129db8185613016565b93506129eb8185602086016131bf565b6129f481613395565b840191505092915050565b6000612a0c602b83613016565b9150612a17826133a6565b604082019050919050565b6000612a2f603283613016565b9150612a3a826133f5565b604082019050919050565b6000612a52601c83613016565b9150612a5d82613444565b602082019050919050565b6000612a75602483613016565b9150612a808261346d565b604082019050919050565b6000612a98601983613016565b9150612aa3826134bc565b602082019050919050565b6000612abb602c83613016565b9150612ac6826134e5565b604082019050919050565b6000612ade603883613016565b9150612ae982613534565b604082019050919050565b6000612b01602083613016565b9150612b0c82613583565b602082019050919050565b6000612b24602083613016565b9150612b2f826135ac565b602082019050919050565b6000612b47602c83613016565b9150612b52826135d5565b604082019050919050565b6000612b6a602983613016565b9150612b7582613624565b604082019050919050565b6000612b8d602183613016565b9150612b9882613673565b604082019050919050565b6000612bb0603183613016565b9150612bbb826136c2565b604082019050919050565b6000612bd3602c83613016565b9150612bde82613711565b604082019050919050565b6000612bf6601f83613016565b9150612c0182613760565b602082019050919050565b612c15816131a6565b82525050565b612c2c612c27826131a6565b61329e565b82525050565b6000612c3e8284612c1b565b60208201915081905092915050565b6000602082019050612c62600083018461296f565b92915050565b6000608082019050612c7d600083018761296f565b612c8a602083018661296f565b612c976040830185612c0c565b8181036060830152612ca9818461298d565b905095945050505050565b6000602082019050612cc9600083018461297e565b92915050565b60006020820190508181036000830152612ce981846129c6565b905092915050565b60006020820190508181036000830152612d0a816129ff565b9050919050565b60006020820190508181036000830152612d2a81612a22565b9050919050565b60006020820190508181036000830152612d4a81612a45565b9050919050565b60006020820190508181036000830152612d6a81612a68565b9050919050565b60006020820190508181036000830152612d8a81612a8b565b9050919050565b60006020820190508181036000830152612daa81612aae565b9050919050565b60006020820190508181036000830152612dca81612ad1565b9050919050565b60006020820190508181036000830152612dea81612af4565b9050919050565b60006020820190508181036000830152612e0a81612b17565b9050919050565b60006020820190508181036000830152612e2a81612b3a565b9050919050565b60006020820190508181036000830152612e4a81612b5d565b9050919050565b60006020820190508181036000830152612e6a81612b80565b9050919050565b60006020820190508181036000830152612e8a81612ba3565b9050919050565b60006020820190508181036000830152612eaa81612bc6565b9050919050565b60006020820190508181036000830152612eca81612be9565b9050919050565b6000602082019050612ee66000830184612c0c565b92915050565b6000606082019050612f016000830186612c0c565b612f0e602083018561296f565b612f1b6040830184612c0c565b949350505050565b6000608082019050612f386000830187612c0c565b612f45602083018661296f565b612f526040830185612c0c565b612f5f606083018461296f565b95945050505050565b6000612f72612f83565b9050612f7e8282613224565b919050565b6000604051905090565b600067ffffffffffffffff821115612fa857612fa7613366565b5b612fb182613395565b9050602081019050919050565b600067ffffffffffffffff821115612fd957612fd8613366565b5b612fe282613395565b9050602081019050919050565b600081519050919050565b600081519050919050565b600082825260208201905092915050565b600082825260208201905092915050565b6000613032826131a6565b915061303d836131a6565b9250827fffffffffffffffffffffffffffffffffffffffffffffffffffffffffffffffff03821115613072576130716132d9565b5b828201905092915050565b6000613088826131a6565b9150613093836131a6565b9250826130a3576130a2613308565b5b828204905092915050565b60006130b9826131a6565b91506130c4836131a6565b9250817fffffffffffffffffffffffffffffffffffffffffffffffffffffffffffffffff04831182151516156130fd576130fc6132d9565b5b828202905092915050565b6000613113826131a6565b915061311e836131a6565b925082821015613131576131306132d9565b5b828203905092915050565b600061314782613186565b9050919050565b60008115159050919050565b60007fffffffff0000000000000000000000000000000000000000000000000000000082169050919050565b600073ffffffffffffffffffffffffffffffffffffffff82169050919050565b6000819050919050565b82818337600083830152505050565b60005b838110156131dd5780820151818401526020810190506131c2565b838111156131ec576000848401525b50505050565b6000600282049050600182168061320a57607f821691505b6020821081141561321e5761321d613337565b5b50919050565b61322d82613395565b810181811067ffffffffffffffff8211171561324c5761324b613366565b5b80604052505050565b6000613260826131a6565b91507fffffffffffffffffffffffffffffffffffffffffffffffffffffffffffffffff821415613293576132926132d9565b5b600182019050919050565b6000819050919050565b60006132b3826131a6565b91506132be836131a6565b9250826132ce576132cd613308565b5b828206905092915050565b7f4e487b7100000000000000000000000000000000000000000000000000000000600052601160045260246000fd5b7f4e487b7100000000000000000000000000000000000000000000000000000000600052601260045260246000fd5b7f4e487b7100000000000000000000000000000000000000000000000000000000600052602260045260246000fd5b7f4e487b7100000000000000000000000000000000000000000000000000000000600052604160045260246000fd5b6000601f19601f8301169050919050565b7f455243373231456e756d657261626c653a206f776e657220696e646578206f7560008201527f74206f6620626f756e6473000000000000000000000000000000000000000000602082015250565b7f4552433732313a207472616e7366657220746f206e6f6e20455243373231526560008201527f63656976657220696d706c656d656e7465720000000000000000000000000000602082015250565b7f4552433732313a20746f6b656e20616c7265616479206d696e74656400000000600082015250565b7f4552433732313a207472616e7366657220746f20746865207a65726f2061646460008201527f7265737300000000000000000000000000000000000000000000000000000000602082015250565b7f4552433732313a20617070726f766520746f2063616c6c657200000000000000600082015250565b7f4552433732313a206f70657261746f7220717565727920666f72206e6f6e657860008201527f697374656e7420746f6b656e0000000000000000000000000000000000000000602082015250565b7f4552433732313a20617070726f76652063616c6c6572206973206e6f74206f7760008201527f6e6572206e6f7220617070726f76656420666f7220616c6c0000000000000000602082015250565b7f4552433732313a206d696e7420746f20746865207a65726f2061646472657373600082015250565b7f476966744e46543a6f70656e3a3a20752072206e6f74204e4654206f776e6572600082015250565b7f4552433732313a20617070726f76656420717565727920666f72206e6f6e657860008201527f697374656e7420746f6b656e0000000000000000000000000000000000000000602082015250565b7f4552433732313a207472616e73666572206f6620746f6b656e2074686174206960008201527f73206e6f74206f776e0000000000000000000000000000000000000000000000602082015250565b7f4552433732313a20617070726f76616c20746f2063757272656e74206f776e6560008201527f7200000000000000000000000000000000000000000000000000000000000000602082015250565b7f4552433732313a207472616e736665722063616c6c6572206973206e6f74206f60008201527f776e6572206e6f7220617070726f766564000000000000000000000000000000602082015250565b7f455243373231456e756d657261626c653a20676c6f62616c20696e646578206f60008201527f7574206f6620626f756e64730000000000000000000000000000000000000000602082015250565b7f5265656e7472616e637947756172643a207265656e7472616e742063616c6c00600082015250565b6137928161313c565b811461379d57600080fd5b50565b6137a98161314e565b81146137b457600080fd5b50565b6137c08161315a565b81146137cb57600080fd5b50565b6137d7816131a6565b81146137e257600080fd5b5056fea2646970667358221220faaa87cb7e76e38732470cde4feff35ea274503411e8cfd4725106d6cc87cf0e64736f6c63430008030033",
  "linkReferences": {},
  "deployedLinkReferences": {}
}