{
  "_format": "hh-sol-artifact-1",
  "contractName": "GiftURIV1",
  "sourceName": "contracts/GiftURIV1.sol",
  "abi": [
    {
      "inputs": [],
      "stateMutability": "nonpayable",
      "type": "constructor"
    },
    {
      "inputs": [
        {
          "internalType": "uint256",
          "name": "tokenId",
          "type": "uint256"
        },
        {
          "internalType": "address",
          "name": "owner",
          "type": "address"
        },
        {
          "internalType": "uint256",
          "name": "value",
          "type": "uint256"
        }
      ],
      "name": "tokenURI",
      "outputs": [
        {
          "internalType": "string",
          "name": "",
          "type": "string"
        }
      ],
      "stateMutability": "view",
      "type": "function"
    }
  ],
  "bytecode": "0x608060405234801561001057600080fd5b506115b6806100206000396000f3fe608060405234801561001057600080fd5b506004361061002b5760003560e01c8063e3ce058514610030575b600080fd5b61004a6004803603810190610045919061085c565b610060565b6040516100579190610dfc565b60405180910390f35b606061006a61080a565b60008060405180608001604052806041815260200161154060419139836000603c81106100c0577f4e487b7100000000000000000000000000000000000000000000000000000000600052603260045260246000fd5b60200201819052506040518060800160405280604b81526020016114c7604b913983836100ec90610fdf565b935083603c8110610126577f4e487b7100000000000000000000000000000000000000000000000000000000600052603260045260246000fd5b60200201819052506040518060600160405280602e8152602001611512602e9139838361015290610fdf565b935083603c811061018c577f4e487b7100000000000000000000000000000000000000000000000000000000600052603260045260246000fd5b60200201819052506000670de0b6b3a7640000866101aa9190610eb1565b905060006101b782610360565b905060328211156101c757603291505b600192505b818311610247576101e783436101e29190610ee2565b61050d565b85856101f290610fdf565b955085603c811061022c577f4e487b7100000000000000000000000000000000000000000000000000000000600052603260045260246000fd5b6020020181905250828061023f90610fdf565b9350506101cc565b610250876106bb565b858561025b90610fdf565b955085603c8110610295577f4e487b7100000000000000000000000000000000000000000000000000000000600052603260045260246000fd5b60200201819052506060600093505b84841161031f57808685603c81106102e5577f4e487b7100000000000000000000000000000000000000000000000000000000600052603260045260246000fd5b60200201516040516020016102fb929190610bd3565b6040516020818303038152906040529050838061031790610fdf565b9450506102a4565b60008261032b8c610360565b8360405160200161033e93929190610ce2565b6040516020818303038152906040529050809750505050505050509392505050565b606060008214156103a8576040518060400160405280600181526020017f30000000000000000000000000000000000000000000000000000000000000008152509050610508565b600082905060005b600082146103da5780806103c390610fdf565b915050600a826103d39190610eb1565b91506103b0565b60008167ffffffffffffffff81111561041c577f4e487b7100000000000000000000000000000000000000000000000000000000600052604160045260246000fd5b6040519080825280601f01601f19166020018201604052801561044e5781602001600182028036833780820191505090505b5090505b60008514610501576001826104679190610f3c565b9150600a856104769190611032565b60306104829190610e5b565b60f81b8183815181106104be577f4e487b7100000000000000000000000000000000000000000000000000000000600052603260045260246000fd5b60200101907effffffffffffffffffffffffffffffffffffffffffffffffffffffffffffff1916908160001a905350600a856104fa9190610eb1565b9450610452565b8093505050505b919050565b6060600061052a6014605a8561052290610fdf565b955085610780565b905060006105536000836101906105419190610f3c565b8661054b90610fdf565b965086610780565b90506000610570601460648761056890610fdf565b975087610780565b9050600061059884836102586105869190610f3c565b8861059090610fdf565b985088610780565b905060006105b5601e605a896105ad90610fdf565b995089610780565b905060006105ce600a836105c99190610eb1565b610360565b6105e3600a846105de9190611032565b610360565b6040516020016105f4929190610c79565b6040516020818303038152906040529050600061061086610360565b61061988610360565b60405160200161062a929190610d3f565b6040516020818303038152906040529050808260405160200161064e929190610ca8565b60405160208183030381529060405290508061066985610360565b61067d87876106789190610e5b565b610360565b61068687610360565b8560405160200161069b959493929190610bf7565b604051602081830303815290604052905080975050505050505050919050565b60606000670de0b6b3a7640000836106d39190610eb1565b60326106df9190610e5b565b90506101908111156106f15761019090505b60006002826101906107039190610f3c565b61070d9190610eb1565b905060006002836102586107219190610f3c565b61072b9190610eb1565b6102586107389190610f3c565b905061074382610360565b61074c82610360565b61075585610360565b60405160200161076793929190610d84565b6040516020818303038152906040529350505050919050565b60008061078c836107d7565b90506127108161079c9190611032565b90508461271086866107ae9190610f3c565b836107b99190610ee2565b6107c39190610eb1565b6107cd9190610e5b565b9150509392505050565b6000816040516020016107ea9190610de1565b6040516020818303038152906040528051906020012060001c9050919050565b604051806107800160405280603c905b606081526020019060019003908161081a5790505090565b60008135905061084181611498565b92915050565b600081359050610856816114af565b92915050565b60008060006060848603121561087157600080fd5b600061087f86828701610847565b935050602061089086828701610832565b92505060406108a186828701610847565b9150509250925092565b60006108b682610e1e565b6108c08185610e34565b93506108d0818560208601610fac565b80840191505092915050565b60006108e782610e29565b6108f18185610e3f565b9350610901818560208601610fac565b61090a816110c1565b840191505092915050565b600061092082610e29565b61092a8185610e50565b935061093a818560208601610fac565b80840191505092915050565b6000610953600e83610e50565b915061095e826110d2565b600e82019050919050565b6000610976600283610e50565b9150610981826110fb565b600282019050919050565b6000610999600e83610e50565b91506109a482611124565b600e82019050919050565b60006109bc601783610e50565b91506109c78261114d565b601782019050919050565b60006109df601d83610e50565b91506109ea82611176565b601d82019050919050565b6000610a02602f83610e50565b9150610a0d8261119f565b602f82019050919050565b6000610a25600383610e50565b9150610a30826111ee565b600382019050919050565b6000610a48601883610e50565b9150610a5382611217565b601882019050919050565b6000610a6b602383610e50565b9150610a7682611240565b602382019050919050565b6000610a8e600d83610e50565b9150610a998261128f565b600d82019050919050565b6000610ab1600183610e50565b9150610abc826112b8565b600182019050919050565b6000610ad4600183610e50565b9150610adf826112e1565b600182019050919050565b6000610af7600183610e50565b9150610b028261130a565b600182019050919050565b6000610b1a603983610e50565b9150610b2582611333565b603982019050919050565b6000610b3d602483610e50565b9150610b4882611382565b602482019050919050565b6000610b60600a83610e50565b9150610b6b826113d1565b600a82019050919050565b6000610b83605283610e50565b9150610b8e826113fa565b605282019050919050565b6000610ba6601b83610e50565b9150610bb18261146f565b601b82019050919050565b610bcd610bc882610fa2565b611028565b82525050565b6000610bdf82856108ab565b9150610beb82846108ab565b91508190509392505050565b6000610c038288610915565b9150610c0e82610a5e565b9150610c1a8287610915565b9150610c2582610ac7565b9150610c318286610915565b9150610c3c82610ac7565b9150610c488285610915565b9150610c5382610a3b565b9150610c5f8284610915565b9150610c6a82610b30565b91508190509695505050505050565b6000610c858285610915565b9150610c9082610aea565b9150610c9c8284610915565b91508190509392505050565b6000610cb48285610915565b9150610cbf82610b0d565b9150610ccb8284610915565b9150610cd6826109d2565b91508190509392505050565b6000610ced8261098c565b9150610cf98286610915565b9150610d0482610a18565b9150610d108285610915565b9150610d1b82610b76565b9150610d2782846108ab565b9150610d3282610969565b9150819050949350505050565b6000610d4a826109af565b9150610d568285610915565b9150610d6182610a81565b9150610d6d8284610915565b9150610d7882610b53565b91508190509392505050565b6000610d8f82610b99565b9150610d9b8286610915565b9150610da682610aa4565b9150610db28285610915565b9150610dbd82610946565b9150610dc98284610915565b9150610dd4826109f5565b9150819050949350505050565b6000610ded8284610bbc565b60208201915081905092915050565b60006020820190508181036000830152610e1681846108dc565b905092915050565b600081519050919050565b600081519050919050565b600081905092915050565b600082825260208201905092915050565b600081905092915050565b6000610e6682610fa2565b9150610e7183610fa2565b9250827fffffffffffffffffffffffffffffffffffffffffffffffffffffffffffffffff03821115610ea657610ea5611063565b5b828201905092915050565b6000610ebc82610fa2565b9150610ec783610fa2565b925082610ed757610ed6611092565b5b828204905092915050565b6000610eed82610fa2565b9150610ef883610fa2565b9250817fffffffffffffffffffffffffffffffffffffffffffffffffffffffffffffffff0483118215151615610f3157610f30611063565b5b828202905092915050565b6000610f4782610fa2565b9150610f5283610fa2565b925082821015610f6557610f64611063565b5b828203905092915050565b6000610f7b82610f82565b9050919050565b600073ffffffffffffffffffffffffffffffffffffffff82169050919050565b6000819050919050565b60005b83811015610fca578082015181840152602081019050610faf565b83811115610fd9576000848401525b50505050565b6000610fea82610fa2565b91507fffffffffffffffffffffffffffffffffffffffffffffffffffffffffffffffff82141561101d5761101c611063565b5b600182019050919050565b6000819050919050565b600061103d82610fa2565b915061104883610fa2565b92508261105857611057611092565b5b828206905092915050565b7f4e487b7100000000000000000000000000000000000000000000000000000000600052601160045260246000fd5b7f4e487b7100000000000000000000000000000000000000000000000000000000600052601260045260246000fd5b6000601f19601f8301169050919050565b7f292220666f6e742d73697a653d22000000000000000000000000000000000000600082015250565b7f277d000000000000000000000000000000000000000000000000000000000000600082015250565b7f7b276e616d65273a274769667428000000000000000000000000000000000000600082015250565b7f3c7465787420636c6173733d22636c732d322220783d22000000000000000000600082015250565b7f732220726570656174436f756e743d22696e646566696e697465222f3e000000600082015250565b7f70782220666f6e742d66616d696c793d22496d70616374223e2623313237383760008201527f333b3c2f746578743e3c2f7376673e0000000000000000000000000000000000602082015250565b7f2920230000000000000000000000000000000000000000000000000000000000600082015250565b7f222063616c634d6f64653d22706163656422206475723d220000000000000000600082015250565b7f3c616e696d617465206174747269627574654e616d653d2279222076616c756560008201527f733d220000000000000000000000000000000000000000000000000000000000602082015250565b7f2220666f6e742d73697a653d2200000000000000000000000000000000000000600082015250565b7f2000000000000000000000000000000000000000000000000000000000000000600082015250565b7f3b00000000000000000000000000000000000000000000000000000000000000600082015250565b7f2e00000000000000000000000000000000000000000000000000000000000000600082015250565b7f3c616e696d617465206174747269627574654e616d653d226f7061636974792260008201527f2076616c7565733d22302e333b313b302e3322206475723d2200000000000000602082015250565b7f732220726570656174436f756e743d22696e646566696e697465222f3e3c2f7460008201527f6578743e00000000000000000000000000000000000000000000000000000000602082015250565b7f223e262331303032323b00000000000000000000000000000000000000000000600082015250565b7f272c276465736372697074696f6e273a27476966744e4654206973206f70656e60008201527f736f7572636520616e6420667265652e272c27696d616765273a27646174613a60208201527f696d6167652f7376672b786d6c3b7574662c0000000000000000000000000000604082015250565b7f3c74657874207472616e73666f726d3d227472616e736c617465280000000000600082015250565b6114a181610f70565b81146114ac57600080fd5b50565b6114b881610fa2565b81146114c357600080fd5b5056fe3c7374796c653e2e636c732d317b66696c6c3a7267622833392c203131322c203338293b7d2e636c732d327b66696c6c3a726762283234312c3230352c313436293b7d3c2f7374796c653e3c7265637420636c6173733d22636c732d31222077696474683d2234303022206865696768743d22363030222f3e3c73766720786d6c6e733d22687474703a2f2f7777772e77332e6f72672f323030302f737667222077696474683d2234303022206865696768743d22363030223ea26469706673582212206d5f58435c2c16760a5226d8971122cb24fec30bd5c39ea24cf3f7245e1f2f0964736f6c63430008030033",
  "linkReferences": {},
  "deployedLinkReferences": {}
}