{
  "_format": "hh-sol-artifact-1",
  "contractName": "SafeERC20",
  "sourceName": "contracts/libraries/SafeERC20.sol",
  "abi": [
    {
      "inputs": [
        {
          "internalType": "contract IERC20",
          "name": "token",
          "type": "IERC20"
        }
      ],
      "name": "safeDecimals",
      "outputs": [
        {
          "internalType": "uint8",
          "name": "",
          "type": "uint8"
        }
      ],
      "stateMutability": "view",
      "type": "function"
    }
  ],
  "bytecode": "0x610347610053600b82828239805160001a607314610046577f4e487b7100000000000000000000000000000000000000000000000000000000600052600060045260246000fd5b30600052607381538281f3fe73000000000000000000000000000000000000000030146080604052600436106100355760003560e01c806372a58ae11461003a575b600080fd5b610054600480360381019061004f9190610185565b61006a565b604051610061919061022e565b60405180910390f35b60008060008373ffffffffffffffffffffffffffffffffffffffff1663313ce5676040516024016040516020818303038152906040529060e01b6020820180517bffffffffffffffffffffffffffffffffffffffffffffffffffffffff83818316178352505050506040516100df9190610217565b600060405180830381855afa9150503d806000811461011a576040519150601f19603f3d011682016040523d82523d6000602084013e61011f565b606091505b5091509150818015610132575060208151145b61013d576012610152565b8080602001905181019061015191906101ae565b5b92505050919050565b60008135905061016a816102e3565b92915050565b60008151905061017f816102fa565b92915050565b60006020828403121561019757600080fd5b60006101a58482850161015b565b91505092915050565b6000602082840312156101c057600080fd5b60006101ce84828501610170565b91505092915050565b60006101e282610249565b6101ec8185610254565b93506101fc8185602086016102b0565b80840191505092915050565b610211816102a3565b82525050565b600061022382846101d7565b915081905092915050565b60006020820190506102436000830184610208565b92915050565b600081519050919050565b600081905092915050565b600061026a82610283565b9050919050565b600061027c8261025f565b9050919050565b600073ffffffffffffffffffffffffffffffffffffffff82169050919050565b600060ff82169050919050565b60005b838110156102ce5780820151818401526020810190506102b3565b838111156102dd576000848401525b50505050565b6102ec81610271565b81146102f757600080fd5b50565b610303816102a3565b811461030e57600080fd5b5056fea26469706673582212200db89722933111395957219e6c35446373ba56acaae6f39fe8a24535573c659364736f6c63430008030033",
  "linkReferences": {},
  "deployedLinkReferences": {}
}